{"abi":[{"type":"constructor","inputs":[],"stateMutability":"nonpayable"},{"type":"function","name":"MAX_SUPPLY","inputs":[],"outputs":[{"name":"","type":"uint256","internalType":"uint256"}],"stateMutability":"view"},{"type":"function","name":"MINT_AMOUNT","inputs":[],"outputs":[{"name":"","type":"uint256","internalType":"uint256"}],"stateMutability":"view"},{"type":"function","name":"MINT_COOLDOWN","inputs":[],"outputs":[{"name":"","type":"uint256","internalType":"uint256"}],"stateMutability":"view"},{"type":"function","name":"allowance","inputs":[{"name":"owner","type":"address","internalType":"address"},{"name":"spender","type":"address","internalType":"address"}],"outputs":[{"name":"","type":"uint256","internalType":"uint256"}],"stateMutability":"view"},{"type":"function","name":"approve","inputs":[{"name":"spender","type":"address","internalType":"address"},{"name":"value","type":"uint256","internalType":"uint256"}],"outputs":[{"name":"","type":"bool","internalType":"bool"}],"stateMutability":"nonpayable"},{"type":"function","name":"balanceOf","inputs":[{"name":"account","type":"address","internalType":"address"}],"outputs":[{"name":"","type":"uint256","internalType":"uint256"}],"stateMutability":"view"},{"type":"function","name":"burn","inputs":[{"name":"amount","type":"uint256","internalType":"uint256"}],"outputs":[],"stateMutability":"nonpayable"},{"type":"function","name":"burnFrom","inputs":[{"name":"account","type":"address","internalType":"address"},{"name":"amount","type":"uint256","internalType":"uint256"}],"outputs":[],"stateMutability":"nonpayable"},{"type":"function","name":"decimals","inputs":[],"outputs":[{"name":"","type":"uint8","internalType":"uint8"}],"stateMutability":"pure"},{"type":"function","name":"lastMintTime","inputs":[{"name":"","type":"address","internalType":"address"}],"outputs":[{"name":"","type":"uint256","internalType":"uint256"}],"stateMutability":"view"},{"type":"function","name":"name","inputs":[],"outputs":[{"name":"","type":"string","internalType":"string"}],"stateMutability":"view"},{"type":"function","name":"owner","inputs":[],"outputs":[{"name":"","type":"address","internalType":"address"}],"stateMutability":"view"},{"type":"function","name":"ownerMint","inputs":[{"name":"to","type":"address","internalType":"address"},{"name":"amount","type":"uint256","internalType":"uint256"}],"outputs":[],"stateMutability":"nonpayable"},{"type":"function","name":"publicMint","inputs":[],"outputs":[],"stateMutability":"nonpayable"},{"type":"function","name":"renounceOwnership","inputs":[],"outputs":[],"stateMutability":"nonpayable"},{"type":"function","name":"symbol","inputs":[],"outputs":[{"name":"","type":"string","internalType":"string"}],"stateMutability":"view"},{"type":"function","name":"totalSupply","inputs":[],"outputs":[{"name":"","type":"uint256","internalType":"uint256"}],"stateMutability":"view"},{"type":"function","name":"transfer","inputs":[{"name":"to","type":"address","internalType":"address"},{"name":"value","type":"uint256","internalType":"uint256"}],"outputs":[{"name":"","type":"bool","internalType":"bool"}],"stateMutability":"nonpayable"},{"type":"function","name":"transferFrom","inputs":[{"name":"from","type":"address","internalType":"address"},{"name":"to","type":"address","internalType":"address"},{"name":"value","type":"uint256","internalType":"uint256"}],"outputs":[{"name":"","type":"bool","internalType":"bool"}],"stateMutability":"nonpayable"},{"type":"function","name":"transferOwnership","inputs":[{"name":"newOwner","type":"address","internalType":"address"}],"outputs":[],"stateMutability":"nonpayable"},{"type":"event","name":"Approval","inputs":[{"name":"owner","type":"address","indexed":true,"internalType":"address"},{"name":"spender","type":"address","indexed":true,"internalType":"address"},{"name":"value","type":"uint256","indexed":false,"internalType":"uint256"}],"anonymous":false},{"type":"event","name":"OwnershipTransferred","inputs":[{"name":"previousOwner","type":"address","indexed":true,"internalType":"address"},{"name":"newOwner","type":"address","indexed":true,"internalType":"address"}],"anonymous":false},{"type":"event","name":"TokensBurned","inputs":[{"name":"from","type":"address","indexed":true,"internalType":"address"},{"name":"amount","type":"uint256","indexed":false,"internalType":"uint256"}],"anonymous":false},{"type":"event","name":"TokensMinted","inputs":[{"name":"to","type":"address","indexed":true,"internalType":"address"},{"name":"amount","type":"uint256","indexed":false,"internalType":"uint256"}],"anonymous":false},{"type":"event","name":"Transfer","inputs":[{"name":"from","type":"address","indexed":true,"internalType":"address"},{"name":"to","type":"address","indexed":true,"internalType":"address"},{"name":"value","type":"uint256","indexed":false,"internalType":"uint256"}],"anonymous":false},{"type":"error","name":"ERC20InsufficientAllowance","inputs":[{"name":"spender","type":"address","internalType":"address"},{"name":"allowance","type":"uint256","internalType":"uint256"},{"name":"needed","type":"uint256","internalType":"uint256"}]},{"type":"error","name":"ERC20InsufficientBalance","inputs":[{"name":"sender","type":"address","internalType":"address"},{"name":"balance","type":"uint256","internalType":"uint256"},{"name":"needed","type":"uint256","internalType":"uint256"}]},{"type":"error","name":"ERC20InvalidApprover","inputs":[{"name":"approver","type":"address","internalType":"address"}]},{"type":"error","name":"ERC20InvalidReceiver","inputs":[{"name":"receiver","type":"address","internalType":"address"}]},{"type":"error","name":"ERC20InvalidSender","inputs":[{"name":"sender","type":"address","internalType":"address"}]},{"type":"error","name":"ERC20InvalidSpender","inputs":[{"name":"spender","type":"address","internalType":"address"}]},{"type":"error","name":"OwnableInvalidOwner","inputs":[{"name":"owner","type":"address","internalType":"address"}]},{"type":"error","name":"OwnableUnauthorizedAccount","inputs":[{"name":"account","type":"address","internalType":"address"}]}],"bytecode":{"object":"0x60806040523480156200001157600080fd5b50336040518060400160405280600c81526020016b54656d706f2050697261746560a01b815250604051806040016040528060078152602001665450697261746560c81b815250816003908162000069919062000370565b50600462000078828262000370565b5050506001600160a01b038116620000ab57604051631e4fbdf760e01b8152600060048201526024015b60405180910390fd5b620000b68162000106565b50655af3107a4000620000ca338262000158565b60405181815233907f3f2c9d57c068687834f0de942a9babb9e5acab57d516d3480a3c16ee165a42739060200160405180910390a25062000464565b600580546001600160a01b038381166001600160a01b0319831681179093556040519116919082907f8be0079c531659141344cd1fd0a4f28419497f9722a3daafe3b4186f6b6457e090600090a35050565b6001600160a01b038216620001845760405163ec442f0560e01b815260006004820152602401620000a2565b620001926000838362000196565b5050565b6001600160a01b038316620001c5578060026000828254620001b991906200043c565b90915550620002399050565b6001600160a01b038316600090815260208190526040902054818110156200021a5760405163391434e360e21b81526001600160a01b03851660048201526024810182905260448101839052606401620000a2565b6001600160a01b03841660009081526020819052604090209082900390555b6001600160a01b038216620002575760028054829003905562000276565b6001600160a01b03821660009081526020819052604090208054820190555b816001600160a01b0316836001600160a01b03167fddf252ad1be2c89b69c2b068fc378daa952ba7f163c4a11628f55a4df523b3ef83604051620002bc91815260200190565b60405180910390a3505050565b634e487b7160e01b600052604160045260246000fd5b600181811c90821680620002f457607f821691505b6020821081036200031557634e487b7160e01b600052602260045260246000fd5b50919050565b601f8211156200036b576000816000526020600020601f850160051c81016020861015620003465750805b601f850160051c820191505b81811015620003675782815560010162000352565b5050505b505050565b81516001600160401b038111156200038c576200038c620002c9565b620003a4816200039d8454620002df565b846200031b565b602080601f831160018114620003dc5760008415620003c35750858301515b600019600386901b1c1916600185901b17855562000367565b600085815260208120601f198616915b828110156200040d57888601518255948401946001909101908401620003ec565b50858210156200042c5787850151600019600388901b60f8161c191681555b5050505050600190811b01905550565b808201808211156200045e57634e487b7160e01b600052601160045260246000fd5b92915050565b610c4f80620004746000396000f3fe608060405234801561001057600080fd5b506004361061012c5760003560e01c80636aa71d18116100ad57806395d89b411161007157806395d89b411461026e578063a9059cbb14610276578063dd62ed3e14610289578063f2fde38b146102c2578063f7ee7a43146102d557600080fd5b80636aa71d18146101ef57806370a082311461020f578063715018a61461023857806379cc6790146102405780638da5cb5b1461025357600080fd5b8063313ce567116100f4578063313ce567146101a157806332cb6b0c146101b057806342966c68146101be578063484b973c146101d15780635427789c146101e457600080fd5b806306fdde0314610131578063095ea7b31461014f57806318160ddd1461017257806323b872dd1461018457806326092b8314610197575b600080fd5b6101396102df565b6040516101469190610a7f565b60405180910390f35b61016261015d366004610aea565b610371565b6040519015158152602001610146565b6002545b604051908152602001610146565b610162610192366004610b14565b61038b565b61019f6103af565b005b60405160068152602001610146565b61017666038d7ea4c6800081565b61019f6101cc366004610b50565b6104db565b61019f6101df366004610aea565b610516565b610176633b9aca0081565b6101766101fd366004610b69565b60066020526000908152604090205481565b61017661021d366004610b69565b6001600160a01b031660009081526020819052604090205490565b61019f6105ce565b61019f61024e366004610aea565b6105e2565b6005546040516001600160a01b039091168152602001610146565b610139610627565b610162610284366004610aea565b610636565b610176610297366004610b8b565b6001600160a01b03918216600090815260016020908152604080832093909416825291909152205490565b61019f6102d0366004610b69565b610644565b6101766201518081565b6060600380546102ee90610bbe565b80601f016020809104026020016040519081016040528092919081815260200182805461031a90610bbe565b80156103675780601f1061033c57610100808354040283529160200191610367565b820191906000526020600020905b81548152906001019060200180831161034a57829003601f168201915b5050505050905090565b60003361037f818585610682565b60019150505b92915050565b600033610399858285610694565b6103a4858585610713565b506001949350505050565b336000908152600660205260409020548015806103d857506103d46201518082610bf8565b4210155b61041b5760405162461bcd60e51b815260206004820152600f60248201526e436f6f6c646f776e2061637469766560881b60448201526064015b60405180910390fd5b66038d7ea4c68000633b9aca0061043160025490565b61043b9190610bf8565b111561047e5760405162461bcd60e51b815260206004820152601260248201527113585e081cdd5c1c1b1e481c995858da195960721b6044820152606401610412565b33600081815260066020526040902042905561049e90633b9aca00610772565b604051633b9aca00815233907f3f2c9d57c068687834f0de942a9babb9e5acab57d516d3480a3c16ee165a4273906020015b60405180910390a250565b6104e4816107ac565b60405181815233907ffd38818f5291bf0bb3a2a48aadc06ba8757865d1dabd804585338aab3009dcb6906020016104d0565b61051e6107b6565b66038d7ea4c680008161053060025490565b61053a9190610bf8565b111561057d5760405162461bcd60e51b815260206004820152601260248201527145786365656473206d617820737570706c7960701b6044820152606401610412565b6105878282610772565b816001600160a01b03167f3f2c9d57c068687834f0de942a9babb9e5acab57d516d3480a3c16ee165a4273826040516105c291815260200190565b60405180910390a25050565b6105d66107b6565b6105e060006107e3565b565b6105ec8282610835565b816001600160a01b03167ffd38818f5291bf0bb3a2a48aadc06ba8757865d1dabd804585338aab3009dcb6826040516105c291815260200190565b6060600480546102ee90610bbe565b60003361037f818585610713565b61064c6107b6565b6001600160a01b03811661067657604051631e4fbdf760e01b815260006004820152602401610412565b61067f816107e3565b50565b61068f838383600161084a565b505050565b6001600160a01b0383811660009081526001602090815260408083209386168352929052205460001981101561070d57818110156106fe57604051637dc7a0d960e11b81526001600160a01b03841660048201526024810182905260448101839052606401610412565b61070d8484848403600061084a565b50505050565b6001600160a01b03831661073d57604051634b637e8f60e11b815260006004820152602401610412565b6001600160a01b0382166107675760405163ec442f0560e01b815260006004820152602401610412565b61068f83838361091f565b6001600160a01b03821661079c5760405163ec442f0560e01b815260006004820152602401610412565b6107a86000838361091f565b5050565b61067f3382610a49565b6005546001600160a01b031633146105e05760405163118cdaa760e01b8152336004820152602401610412565b600580546001600160a01b038381166001600160a01b0319831681179093556040519116919082907f8be0079c531659141344cd1fd0a4f28419497f9722a3daafe3b4186f6b6457e090600090a35050565b610840823383610694565b6107a88282610a49565b6001600160a01b0384166108745760405163e602df0560e01b815260006004820152602401610412565b6001600160a01b03831661089e57604051634a1406b160e11b815260006004820152602401610412565b6001600160a01b038085166000908152600160209081526040808320938716835292905220829055801561070d57826001600160a01b0316846001600160a01b03167f8c5be1e5ebec7d5bd14f71427d1e84f3dd0314c0f7b2291e5b200ac8c7c3b9258460405161091191815260200190565b60405180910390a350505050565b6001600160a01b03831661094a57806002600082825461093f9190610bf8565b909155506109bc9050565b6001600160a01b0383166000908152602081905260409020548181101561099d5760405163391434e360e21b81526001600160a01b03851660048201526024810182905260448101839052606401610412565b6001600160a01b03841660009081526020819052604090209082900390555b6001600160a01b0382166109d8576002805482900390556109f7565b6001600160a01b03821660009081526020819052604090208054820190555b816001600160a01b0316836001600160a01b03167fddf252ad1be2c89b69c2b068fc378daa952ba7f163c4a11628f55a4df523b3ef83604051610a3c91815260200190565b60405180910390a3505050565b6001600160a01b038216610a7357604051634b637e8f60e11b815260006004820152602401610412565b6107a88260008361091f565b60006020808352835180602085015260005b81811015610aad57858101830151858201604001528201610a91565b506000604082860101526040601f19601f8301168501019250505092915050565b80356001600160a01b0381168114610ae557600080fd5b919050565b60008060408385031215610afd57600080fd5b610b0683610ace565b946020939093013593505050565b600080600060608486031215610b2957600080fd5b610b3284610ace565b9250610b4060208501610ace565b9150604084013590509250925092565b600060208284031215610b6257600080fd5b5035919050565b600060208284031215610b7b57600080fd5b610b8482610ace565b9392505050565b60008060408385031215610b9e57600080fd5b610ba783610ace565b9150610bb560208401610ace565b90509250929050565b600181811c90821680610bd257607f821691505b602082108103610bf257634e487b7160e01b600052602260045260246000fd5b50919050565b8082018082111561038557634e487b7160e01b600052601160045260246000fdfea26469706673582212204fe88fc0992da6bea7270f830165278462575c5fb670dbb604d42b2a6aaf231464736f6c63430008180033","linkReferences":{}},"methodIdentifiers":{"MAX_SUPPLY()":"32cb6b0c","MINT_AMOUNT()":"5427789c","MINT_COOLDOWN()":"f7ee7a43","allowance(address,address)":"dd62ed3e","approve(address,uint256)":"095ea7b3","balanceOf(address)":"70a08231","burn(uint256)":"42966c68","burnFrom(address,uint256)":"79cc6790","decimals()":"313ce567","lastMintTime(address)":"6aa71d18","name()":"06fdde03","owner()":"8da5cb5b","ownerMint(address,uint256)":"484b973c","publicMint()":"26092b83","renounceOwnership()":"715018a6","symbol()":"95d89b41","totalSupply()":"18160ddd","transfer(address,uint256)":"a9059cbb","transferFrom(address,address,uint256)":"23b872dd","transferOwnership(address)":"f2fde38b"},"id":26}