{"abi":[{"type":"constructor","inputs":[{"name":"_tpirate","type":"address","internalType":"address"},{"name":"_whaleNFT","type":"address","internalType":"address"}],"stateMutability":"nonpayable"},{"type":"function","name":"claimAmount","inputs":[],"outputs":[{"name":"","type":"uint256","internalType":"uint256"}],"stateMutability":"view"},{"type":"function","name":"cooldown","inputs":[],"outputs":[{"name":"","type":"uint256","internalType":"uint256"}],"stateMutability":"view"},{"type":"function","name":"faucetBalance","inputs":[],"outputs":[{"name":"","type":"uint256","internalType":"uint256"}],"stateMutability":"view"},{"type":"function","name":"lastClaimTime","inputs":[{"name":"","type":"address","internalType":"address"}],"outputs":[{"name":"","type":"uint256","internalType":"uint256"}],"stateMutability":"view"},{"type":"function","name":"owner","inputs":[],"outputs":[{"name":"","type":"address","internalType":"address"}],"stateMutability":"view"},{"type":"function","name":"renounceOwnership","inputs":[],"outputs":[],"stateMutability":"nonpayable"},{"type":"function","name":"setClaimAmount","inputs":[{"name":"_amount","type":"uint256","internalType":"uint256"}],"outputs":[],"stateMutability":"nonpayable"},{"type":"function","name":"setCooldown","inputs":[{"name":"_cooldown","type":"uint256","internalType":"uint256"}],"outputs":[],"stateMutability":"nonpayable"},{"type":"function","name":"timeUntilClaim","inputs":[{"name":"user","type":"address","internalType":"address"}],"outputs":[{"name":"","type":"uint256","internalType":"uint256"}],"stateMutability":"view"},{"type":"function","name":"tpirate","inputs":[],"outputs":[{"name":"","type":"address","internalType":"contract IERC20"}],"stateMutability":"view"},{"type":"function","name":"transferOwnership","inputs":[{"name":"newOwner","type":"address","internalType":"address"}],"outputs":[],"stateMutability":"nonpayable"},{"type":"function","name":"whaleClaim","inputs":[],"outputs":[],"stateMutability":"nonpayable"},{"type":"function","name":"whaleNFT","inputs":[],"outputs":[{"name":"","type":"address","internalType":"contract IERC721"}],"stateMutability":"view"},{"type":"function","name":"withdraw","inputs":[{"name":"_amount","type":"uint256","internalType":"uint256"}],"outputs":[],"stateMutability":"nonpayable"},{"type":"function","name":"withdrawAll","inputs":[],"outputs":[],"stateMutability":"nonpayable"},{"type":"event","name":"ClaimAmountUpdated","inputs":[{"name":"oldAmount","type":"uint256","indexed":false,"internalType":"uint256"},{"name":"newAmount","type":"uint256","indexed":false,"internalType":"uint256"}],"anonymous":false},{"type":"event","name":"CooldownUpdated","inputs":[{"name":"oldCooldown","type":"uint256","indexed":false,"internalType":"uint256"},{"name":"newCooldown","type":"uint256","indexed":false,"internalType":"uint256"}],"anonymous":false},{"type":"event","name":"FundsWithdrawn","inputs":[{"name":"to","type":"address","indexed":true,"internalType":"address"},{"name":"amount","type":"uint256","indexed":false,"internalType":"uint256"}],"anonymous":false},{"type":"event","name":"OwnershipTransferred","inputs":[{"name":"previousOwner","type":"address","indexed":true,"internalType":"address"},{"name":"newOwner","type":"address","indexed":true,"internalType":"address"}],"anonymous":false},{"type":"event","name":"WhaleClaimed","inputs":[{"name":"whale","type":"address","indexed":true,"internalType":"address"},{"name":"amount","type":"uint256","indexed":false,"internalType":"uint256"}],"anonymous":false},{"type":"error","name":"OwnableInvalidOwner","inputs":[{"name":"owner","type":"address","internalType":"address"}]},{"type":"error","name":"OwnableUnauthorizedAccount","inputs":[{"name":"account","type":"address","internalType":"address"}]}],"bytecode":{"object":"0x60c06040526402540be40060015561a8c060025534801561001f57600080fd5b50604051610bb5380380610bb583398101604081905261003e916100f1565b338061006457604051631e4fbdf760e01b81526000600482015260240160405180910390fd5b61006d81610085565b506001600160a01b039182166080521660a052610124565b600080546001600160a01b038381166001600160a01b0319831681178455604051919092169283917f8be0079c531659141344cd1fd0a4f28419497f9722a3daafe3b4186f6b6457e09190a35050565b80516001600160a01b03811681146100ec57600080fd5b919050565b6000806040838503121561010457600080fd5b61010d836100d5565b915061011b602084016100d5565b90509250929050565b60805160a051610a3b61017a6000396000818161011a01526103b30152600081816101590152818161024f015281816102eb015281816104f7015281816105f20152818161071201526107a40152610a3b6000f3fe608060405234801561001057600080fd5b50600436106100f55760003560e01c8063787a08a611610097578063b1c7ef0c11610066578063b1c7ef0c146101de578063b77cf9c6146101f1578063c8fb742614610211578063f2fde38b1461022457600080fd5b8063787a08a6146101b3578063830953ab146101bc578063853828b6146101c55780638da5cb5b146101cd57600080fd5b80632e1a7d4d116100d35780632e1a7d4d1461017b578063419d4311146101905780634fc3f41a14610198578063715018a6146101ab57600080fd5b80631720f5d2146100fa57806317b1090b1461011557806322e9acbb14610154575b600080fd5b610102610237565b6040519081526020015b60405180910390f35b61013c7f000000000000000000000000000000000000000000000000000000000000000081565b6040516001600160a01b03909116815260200161010c565b61013c7f000000000000000000000000000000000000000000000000000000000000000081565b61018e61018936600461093f565b6102c7565b005b61018e61039b565b61018e6101a636600461093f565b610695565b61018e6106de565b61010260025481565b61010260015481565b61018e6106f2565b6000546001600160a01b031661013c565b61018e6101ec36600461093f565b6107db565b6101026101ff366004610958565b60036020526000908152604090205481565b61010261021f366004610958565b610824565b61018e610232366004610958565b610884565b6040516370a0823160e01b81523060048201526000907f00000000000000000000000000000000000000000000000000000000000000006001600160a01b0316906370a0823190602401602060405180830381865afa15801561029e573d6000803e3d6000fd5b505050506040513d601f19601f820116820180604052508101906102c29190610988565b905090565b6102cf6108c2565b60405163a9059cbb60e01b8152336004820152602481018290527f00000000000000000000000000000000000000000000000000000000000000006001600160a01b03169063a9059cbb906044015b6020604051808303816000875af115801561033d573d6000803e3d6000fd5b505050506040513d601f19601f8201168201806040525081019061036191906109a1565b5060405181815233907feaff4b37086828766ad3268786972c0cd24259d4c87a80f9d3963a3c3d999b0d906020015b60405180910390a250565b6040516370a0823160e01b81523360048201526000907f00000000000000000000000000000000000000000000000000000000000000006001600160a01b0316906370a0823190602401602060405180830381865afa158015610402573d6000803e3d6000fd5b505050506040513d601f19601f820116820180604052508101906104269190610988565b116104785760405162461bcd60e51b815260206004820152601c60248201527f4d75737420686f6c64206120537461626c65205768616c65204e46540000000060448201526064015b60405180910390fd5b336000908152600360205260409020548015806104a1575060025461049d90826109d9565b4210155b6104df5760405162461bcd60e51b815260206004820152600f60248201526e436f6f6c646f776e2061637469766560881b604482015260640161046f565b6001546040516370a0823160e01b81523060048201527f00000000000000000000000000000000000000000000000000000000000000006001600160a01b0316906370a0823190602401602060405180830381865afa158015610546573d6000803e3d6000fd5b505050506040513d601f19601f8201168201806040525081019061056a9190610988565b10156105b85760405162461bcd60e51b815260206004820152601f60248201527f46617563657420656d707479202d20636865636b206261636b206c6174657200604482015260640161046f565b3360008181526003602052604090819020429055600154905163a9059cbb60e01b8152600481019290925260248201526001600160a01b037f0000000000000000000000000000000000000000000000000000000000000000169063a9059cbb906044016020604051808303816000875af115801561063b573d6000803e3d6000fd5b505050506040513d601f19601f8201168201806040525081019061065f91906109a1565b5060015460405190815233907fc08595eb2b23aeeec210ed0231edb1fdbca2e8523d4d51665cb6da46bae422f790602001610390565b61069d6108c2565b60025460408051918252602082018390527f5953b565c074c2cce1866b4e69c9efc4908556bb6fca70f735907c94d9405515910160405180910390a1600255565b6106e66108c2565b6106f060006108ef565b565b6106fa6108c2565b6040516370a0823160e01b81523060048201526000907f00000000000000000000000000000000000000000000000000000000000000006001600160a01b0316906370a0823190602401602060405180830381865afa158015610761573d6000803e3d6000fd5b505050506040513d601f19601f820116820180604052508101906107859190610988565b60405163a9059cbb60e01b8152336004820152602481018290529091507f00000000000000000000000000000000000000000000000000000000000000006001600160a01b03169063a9059cbb9060440161031e565b6107e36108c2565b60015460408051918252602082018390527fc22e16deec6f587d0a1aad7275c1621e6c24431fea14dd71e8f3243e9fbc5ca3910160405180910390a1600155565b6001600160a01b03811660009081526003602052604081205480820361084d5750600092915050565b600061085982426109f2565b9050600254811061086e575060009392505050565b8060025461087c91906109f2565b949350505050565b61088c6108c2565b6001600160a01b0381166108b657604051631e4fbdf760e01b81526000600482015260240161046f565b6108bf816108ef565b50565b6000546001600160a01b031633146106f05760405163118cdaa760e01b815233600482015260240161046f565b600080546001600160a01b038381166001600160a01b0319831681178455604051919092169283917f8be0079c531659141344cd1fd0a4f28419497f9722a3daafe3b4186f6b6457e09190a35050565b60006020828403121561095157600080fd5b5035919050565b60006020828403121561096a57600080fd5b81356001600160a01b038116811461098157600080fd5b9392505050565b60006020828403121561099a57600080fd5b5051919050565b6000602082840312156109b357600080fd5b8151801515811461098157600080fd5b634e487b7160e01b600052601160045260246000fd5b808201808211156109ec576109ec6109c3565b92915050565b818103818111156109ec576109ec6109c356fea264697066735822122011ef56f056c682d0977b0b374d59a515ad469a899875dbb32d345e438cced9d164736f6c63430008180033","linkReferences":{}},"methodIdentifiers":{"claimAmount()":"830953ab","cooldown()":"787a08a6","faucetBalance()":"1720f5d2","lastClaimTime(address)":"b77cf9c6","owner()":"8da5cb5b","renounceOwnership()":"715018a6","setClaimAmount(uint256)":"b1c7ef0c","setCooldown(uint256)":"4fc3f41a","timeUntilClaim(address)":"c8fb7426","tpirate()":"22e9acbb","transferOwnership(address)":"f2fde38b","whaleClaim()":"419d4311","whaleNFT()":"17b1090b","withdraw(uint256)":"2e1a7d4d","withdrawAll()":"853828b6"},"id":21}